{
  "_format": "hh-sol-artifact-1",
  "contractName": "Depotify",
  "sourceName": "contracts/Depotify.sol",
  "abi": [
    {
      "inputs": [],
      "stateMutability": "nonpayable",
      "type": "constructor"
    },
    {
      "inputs": [
        {
          "internalType": "address",
          "name": "sender",
          "type": "address"
        },
        {
          "internalType": "uint256",
          "name": "tokenId",
          "type": "uint256"
        },
        {
          "internalType": "address",
          "name": "owner",
          "type": "address"
        }
      ],
      "name": "ERC721IncorrectOwner",
      "type": "error"
    },
    {
      "inputs": [
        {
          "internalType": "address",
          "name": "operator",
          "type": "address"
        },
        {
          "internalType": "uint256",
          "name": "tokenId",
          "type": "uint256"
        }
      ],
      "name": "ERC721InsufficientApproval",
      "type": "error"
    },
    {
      "inputs": [
        {
          "internalType": "address",
          "name": "approver",
          "type": "address"
        }
      ],
      "name": "ERC721InvalidApprover",
      "type": "error"
    },
    {
      "inputs": [
        {
          "internalType": "address",
          "name": "operator",
          "type": "address"
        }
      ],
      "name": "ERC721InvalidOperator",
      "type": "error"
    },
    {
      "inputs": [
        {
          "internalType": "address",
          "name": "owner",
          "type": "address"
        }
      ],
      "name": "ERC721InvalidOwner",
      "type": "error"
    },
    {
      "inputs": [
        {
          "internalType": "address",
          "name": "receiver",
          "type": "address"
        }
      ],
      "name": "ERC721InvalidReceiver",
      "type": "error"
    },
    {
      "inputs": [
        {
          "internalType": "address",
          "name": "sender",
          "type": "address"
        }
      ],
      "name": "ERC721InvalidSender",
      "type": "error"
    },
    {
      "inputs": [
        {
          "internalType": "uint256",
          "name": "tokenId",
          "type": "uint256"
        }
      ],
      "name": "ERC721NonexistentToken",
      "type": "error"
    },
    {
      "inputs": [
        {
          "internalType": "address",
          "name": "owner",
          "type": "address"
        }
      ],
      "name": "OwnableInvalidOwner",
      "type": "error"
    },
    {
      "inputs": [
        {
          "internalType": "address",
          "name": "account",
          "type": "address"
        }
      ],
      "name": "OwnableUnauthorizedAccount",
      "type": "error"
    },
    {
      "anonymous": false,
      "inputs": [
        {
          "indexed": true,
          "internalType": "address",
          "name": "owner",
          "type": "address"
        },
        {
          "indexed": true,
          "internalType": "address",
          "name": "approved",
          "type": "address"
        },
        {
          "indexed": true,
          "internalType": "uint256",
          "name": "tokenId",
          "type": "uint256"
        }
      ],
      "name": "Approval",
      "type": "event"
    },
    {
      "anonymous": false,
      "inputs": [
        {
          "indexed": true,
          "internalType": "address",
          "name": "owner",
          "type": "address"
        },
        {
          "indexed": true,
          "internalType": "address",
          "name": "operator",
          "type": "address"
        },
        {
          "indexed": false,
          "internalType": "bool",
          "name": "approved",
          "type": "bool"
        }
      ],
      "name": "ApprovalForAll",
      "type": "event"
    },
    {
      "anonymous": false,
      "inputs": [
        {
          "indexed": false,
          "internalType": "uint256",
          "name": "_fromTokenId",
          "type": "uint256"
        },
        {
          "indexed": false,
          "internalType": "uint256",
          "name": "_toTokenId",
          "type": "uint256"
        }
      ],
      "name": "BatchMetadataUpdate",
      "type": "event"
    },
    {
      "anonymous": false,
      "inputs": [
        {
          "indexed": true,
          "internalType": "uint256",
          "name": "tokenId",
          "type": "uint256"
        },
        {
          "indexed": true,
          "internalType": "address",
          "name": "seller",
          "type": "address"
        },
        {
          "indexed": false,
          "internalType": "address",
          "name": "buyer",
          "type": "address"
        },
        {
          "indexed": false,
          "internalType": "uint256",
          "name": "price",
          "type": "uint256"
        },
        {
          "indexed": true,
          "internalType": "address",
          "name": "artist",
          "type": "address"
        }
      ],
      "name": "MarketItemBought",
      "type": "event"
    },
    {
      "anonymous": false,
      "inputs": [
        {
          "indexed": true,
          "internalType": "uint256",
          "name": "tokenId",
          "type": "uint256"
        },
        {
          "indexed": true,
          "internalType": "address",
          "name": "seller",
          "type": "address"
        },
        {
          "indexed": false,
          "internalType": "uint256",
          "name": "price",
          "type": "uint256"
        },
        {
          "indexed": true,
          "internalType": "address",
          "name": "artist",
          "type": "address"
        }
      ],
      "name": "MarketItemRelisted",
      "type": "event"
    },
    {
      "anonymous": false,
      "inputs": [
        {
          "indexed": false,
          "internalType": "uint256",
          "name": "_tokenId",
          "type": "uint256"
        }
      ],
      "name": "MetadataUpdate",
      "type": "event"
    },
    {
      "anonymous": false,
      "inputs": [
        {
          "indexed": true,
          "internalType": "address",
          "name": "previousOwner",
          "type": "address"
        },
        {
          "indexed": true,
          "internalType": "address",
          "name": "newOwner",
          "type": "address"
        }
      ],
      "name": "OwnershipTransferred",
      "type": "event"
    },
    {
      "anonymous": false,
      "inputs": [
        {
          "indexed": true,
          "internalType": "uint256",
          "name": "tokenId",
          "type": "uint256"
        },
        {
          "indexed": true,
          "internalType": "address",
          "name": "liker",
          "type": "address"
        },
        {
          "indexed": false,
          "internalType": "uint256",
          "name": "amount",
          "type": "uint256"
        }
      ],
      "name": "TokenLiked",
      "type": "event"
    },
    {
      "anonymous": false,
      "inputs": [
        {
          "indexed": true,
          "internalType": "uint256",
          "name": "tokenId",
          "type": "uint256"
        },
        {
          "indexed": true,
          "internalType": "address",
          "name": "artist",
          "type": "address"
        },
        {
          "indexed": false,
          "internalType": "uint256",
          "name": "royalty",
          "type": "uint256"
        }
      ],
      "name": "TokenMinted",
      "type": "event"
    },
    {
      "anonymous": false,
      "inputs": [
        {
          "indexed": true,
          "internalType": "address",
          "name": "from",
          "type": "address"
        },
        {
          "indexed": true,
          "internalType": "address",
          "name": "to",
          "type": "address"
        },
        {
          "indexed": true,
          "internalType": "uint256",
          "name": "tokenId",
          "type": "uint256"
        }
      ],
      "name": "Transfer",
      "type": "event"
    },
    {
      "inputs": [
        {
          "internalType": "address",
          "name": "to",
          "type": "address"
        },
        {
          "internalType": "uint256",
          "name": "tokenId",
          "type": "uint256"
        }
      ],
      "name": "approve",
      "outputs": [],
      "stateMutability": "nonpayable",
      "type": "function"
    },
    {
      "inputs": [
        {
          "internalType": "address",
          "name": "owner",
          "type": "address"
        }
      ],
      "name": "balanceOf",
      "outputs": [
        {
          "internalType": "uint256",
          "name": "",
          "type": "uint256"
        }
      ],
      "stateMutability": "view",
      "type": "function"
    },
    {
      "inputs": [
        {
          "internalType": "uint256",
          "name": "_tokenId",
          "type": "uint256"
        }
      ],
      "name": "buyToken",
      "outputs": [],
      "stateMutability": "payable",
      "type": "function"
    },
    {
      "inputs": [],
      "name": "getAllUnsoldTokens",
      "outputs": [
        {
          "components": [
            {
              "internalType": "uint256",
              "name": "tokenId",
              "type": "uint256"
            },
            {
              "internalType": "address payable",
              "name": "seller",
              "type": "address"
            },
            {
              "internalType": "uint256",
              "name": "price",
              "type": "uint256"
            },
            {
              "internalType": "address payable",
              "name": "artist",
              "type": "address"
            },
            {
              "internalType": "uint256",
              "name": "royalty",
              "type": "uint256"
            }
          ],
          "internalType": "struct Depotify.Item[]",
          "name": "",
          "type": "tuple[]"
        }
      ],
      "stateMutability": "view",
      "type": "function"
    },
    {
      "inputs": [
        {
          "internalType": "uint256",
          "name": "tokenId",
          "type": "uint256"
        }
      ],
      "name": "getApproved",
      "outputs": [
        {
          "internalType": "address",
          "name": "",
          "type": "address"
        }
      ],
      "stateMutability": "view",
      "type": "function"
    },
    {
      "inputs": [],
      "name": "getMyTokens",
      "outputs": [
        {
          "components": [
            {
              "internalType": "uint256",
              "name": "tokenId",
              "type": "uint256"
            },
            {
              "internalType": "address payable",
              "name": "seller",
              "type": "address"
            },
            {
              "internalType": "uint256",
              "name": "price",
              "type": "uint256"
            },
            {
              "internalType": "address payable",
              "name": "artist",
              "type": "address"
            },
            {
              "internalType": "uint256",
              "name": "royalty",
              "type": "uint256"
            }
          ],
          "internalType": "struct Depotify.Item[]",
          "name": "",
          "type": "tuple[]"
        }
      ],
      "stateMutability": "view",
      "type": "function"
    },
    {
      "inputs": [
        {
          "internalType": "address",
          "name": "owner",
          "type": "address"
        },
        {
          "internalType": "address",
          "name": "operator",
          "type": "address"
        }
      ],
      "name": "isApprovedForAll",
      "outputs": [
        {
          "internalType": "bool",
          "name": "",
          "type": "bool"
        }
      ],
      "stateMutability": "view",
      "type": "function"
    },
    {
      "inputs": [
        {
          "internalType": "uint256",
          "name": "_tokenId",
          "type": "uint256"
        }
      ],
      "name": "likeToken",
      "outputs": [],
      "stateMutability": "payable",
      "type": "function"
    },
    {
      "inputs": [
        {
          "internalType": "uint256",
          "name": "",
          "type": "uint256"
        }
      ],
      "name": "likes",
      "outputs": [
        {
          "internalType": "uint256",
          "name": "",
          "type": "uint256"
        }
      ],
      "stateMutability": "view",
      "type": "function"
    },
    {
      "inputs": [
        {
          "internalType": "uint256",
          "name": "",
          "type": "uint256"
        }
      ],
      "name": "marketItems",
      "outputs": [
        {
          "internalType": "uint256",
          "name": "tokenId",
          "type": "uint256"
        },
        {
          "internalType": "address payable",
          "name": "seller",
          "type": "address"
        },
        {
          "internalType": "uint256",
          "name": "price",
          "type": "uint256"
        },
        {
          "internalType": "address payable",
          "name": "artist",
          "type": "address"
        },
        {
          "internalType": "uint256",
          "name": "royalty",
          "type": "uint256"
        }
      ],
      "stateMutability": "view",
      "type": "function"
    },
    {
      "inputs": [
        {
          "internalType": "string",
          "name": "_tokenURI",
          "type": "string"
        },
        {
          "internalType": "uint256",
          "name": "_price",
          "type": "uint256"
        },
        {
          "internalType": "uint256",
          "name": "_royalty",
          "type": "uint256"
        }
      ],
      "name": "mintToken",
      "outputs": [],
      "stateMutability": "nonpayable",
      "type": "function"
    },
    {
      "inputs": [],
      "name": "name",
      "outputs": [
        {
          "internalType": "string",
          "name": "",
          "type": "string"
        }
      ],
      "stateMutability": "view",
      "type": "function"
    },
    {
      "inputs": [],
      "name": "owner",
      "outputs": [
        {
          "internalType": "address",
          "name": "",
          "type": "address"
        }
      ],
      "stateMutability": "view",
      "type": "function"
    },
    {
      "inputs": [
        {
          "internalType": "uint256",
          "name": "tokenId",
          "type": "uint256"
        }
      ],
      "name": "ownerOf",
      "outputs": [
        {
          "internalType": "address",
          "name": "",
          "type": "address"
        }
      ],
      "stateMutability": "view",
      "type": "function"
    },
    {
      "inputs": [],
      "name": "renounceOwnership",
      "outputs": [],
      "stateMutability": "nonpayable",
      "type": "function"
    },
    {
      "inputs": [
        {
          "internalType": "uint256",
          "name": "_tokenId",
          "type": "uint256"
        },
        {
          "internalType": "uint256",
          "name": "_price",
          "type": "uint256"
        }
      ],
      "name": "resellTokens",
      "outputs": [],
      "stateMutability": "payable",
      "type": "function"
    },
    {
      "inputs": [
        {
          "internalType": "address",
          "name": "from",
          "type": "address"
        },
        {
          "internalType": "address",
          "name": "to",
          "type": "address"
        },
        {
          "internalType": "uint256",
          "name": "tokenId",
          "type": "uint256"
        }
      ],
      "name": "safeTransferFrom",
      "outputs": [],
      "stateMutability": "nonpayable",
      "type": "function"
    },
    {
      "inputs": [
        {
          "internalType": "address",
          "name": "from",
          "type": "address"
        },
        {
          "internalType": "address",
          "name": "to",
          "type": "address"
        },
        {
          "internalType": "uint256",
          "name": "tokenId",
          "type": "uint256"
        },
        {
          "internalType": "bytes",
          "name": "data",
          "type": "bytes"
        }
      ],
      "name": "safeTransferFrom",
      "outputs": [],
      "stateMutability": "nonpayable",
      "type": "function"
    },
    {
      "inputs": [
        {
          "internalType": "address",
          "name": "operator",
          "type": "address"
        },
        {
          "internalType": "bool",
          "name": "approved",
          "type": "bool"
        }
      ],
      "name": "setApprovalForAll",
      "outputs": [],
      "stateMutability": "nonpayable",
      "type": "function"
    },
    {
      "inputs": [
        {
          "internalType": "bytes4",
          "name": "interfaceId",
          "type": "bytes4"
        }
      ],
      "name": "supportsInterface",
      "outputs": [
        {
          "internalType": "bool",
          "name": "",
          "type": "bool"
        }
      ],
      "stateMutability": "view",
      "type": "function"
    },
    {
      "inputs": [],
      "name": "symbol",
      "outputs": [
        {
          "internalType": "string",
          "name": "",
          "type": "string"
        }
      ],
      "stateMutability": "view",
      "type": "function"
    },
    {
      "inputs": [],
      "name": "tokenId",
      "outputs": [
        {
          "internalType": "uint256",
          "name": "",
          "type": "uint256"
        }
      ],
      "stateMutability": "view",
      "type": "function"
    },
    {
      "inputs": [
        {
          "internalType": "uint256",
          "name": "tokenId",
          "type": "uint256"
        }
      ],
      "name": "tokenURI",
      "outputs": [
        {
          "internalType": "string",
          "name": "",
          "type": "string"
        }
      ],
      "stateMutability": "view",
      "type": "function"
    },
    {
      "inputs": [
        {
          "internalType": "address",
          "name": "from",
          "type": "address"
        },
        {
          "internalType": "address",
          "name": "to",
          "type": "address"
        },
        {
          "internalType": "uint256",
          "name": "tokenId",
          "type": "uint256"
        }
      ],
      "name": "transferFrom",
      "outputs": [],
      "stateMutability": "nonpayable",
      "type": "function"
    },
    {
      "inputs": [
        {
          "internalType": "address",
          "name": "newOwner",
          "type": "address"
        }
      ],
      "name": "transferOwnership",
      "outputs": [],
      "stateMutability": "nonpayable",
      "type": "function"
    }
  ],
  "bytecode": "0x60806040523480156200001157600080fd5b506040518060400160405280600881526020017f4465706f746966790000000000000000000000000000000000000000000000008152506040518060400160405280600381526020017f445054000000000000000000000000000000000000000000000000000000000081525033600073ffffffffffffffffffffffffffffffffffffffff168173ffffffffffffffffffffffffffffffffffffffff1603620000f45760006040517f1e4fbdf7000000000000000000000000000000000000000000000000000000008152600401620000eb91906200023b565b60405180910390fd5b62000105816200013260201b60201c565b508160019081620001179190620004d2565b508060029081620001299190620004d2565b505050620005b9565b60008060009054906101000a900473ffffffffffffffffffffffffffffffffffffffff169050816000806101000a81548173ffffffffffffffffffffffffffffffffffffffff021916908373ffffffffffffffffffffffffffffffffffffffff1602179055508173ffffffffffffffffffffffffffffffffffffffff168173ffffffffffffffffffffffffffffffffffffffff167f8be0079c531659141344cd1fd0a4f28419497f9722a3daafe3b4186f6b6457e060405160405180910390a35050565b600073ffffffffffffffffffffffffffffffffffffffff82169050919050565b60006200022382620001f6565b9050919050565b620002358162000216565b82525050565b60006020820190506200025260008301846200022a565b92915050565b600081519050919050565b7f4e487b7100000000000000000000000000000000000000000000000000000000600052604160045260246000fd5b7f4e487b7100000000000000000000000000000000000000000000000000000000600052602260045260246000fd5b60006002820490506001821680620002da57607f821691505b602082108103620002f057620002ef62000292565b5b50919050565b60008190508160005260206000209050919050565b60006020601f8301049050919050565b600082821b905092915050565b6000600883026200035a7fffffffffffffffffffffffffffffffffffffffffffffffffffffffffffffffff826200031b565b6200036686836200031b565b95508019841693508086168417925050509392505050565b6000819050919050565b6000819050919050565b6000620003b3620003ad620003a7846200037e565b62000388565b6200037e565b9050919050565b6000819050919050565b620003cf8362000392565b620003e7620003de82620003ba565b84845462000328565b825550505050565b600090565b620003fe620003ef565b6200040b818484620003c4565b505050565b5b81811015620004335762000427600082620003f4565b60018101905062000411565b5050565b601f82111562000482576200044c81620002f6565b62000457846200030b565b8101602085101562000467578190505b6200047f62000476856200030b565b83018262000410565b50505b505050565b600082821c905092915050565b6000620004a76000198460080262000487565b1980831691505092915050565b6000620004c2838362000494565b9150826002028217905092915050565b620004dd8262000258565b67ffffffffffffffff811115620004f957620004f862000263565b5b620005058254620002c1565b6200051282828562000437565b600060209050601f8311600181146200054a576000841562000535578287015190505b620005418582620004b4565b865550620005b1565b601f1984166200055a86620002f6565b60005b8281101562000584578489015182556001820191506020850194506020810190506200055d565b86831015620005a45784890151620005a0601f89168262000494565b8355505b6001600288020188555050505b505050505050565b613b7a80620005c96000396000f3fe6080604052600436106101665760003560e01c806370a08231116100d1578063a22cb4651161008a578063c87b56dd11610064578063c87b56dd14610517578063e376562014610554578063e985e9c51461057d578063f2fde38b146105ba57610166565b8063a22cb465146104a9578063b5b87cf9146104d2578063b88d4fde146104ee57610166565b806370a0823114610397578063715018a6146103d4578063767dd076146103eb5780637e9dffe6146104165780638da5cb5b1461045357806395d89b411461047e57610166565b80632d296bf1116101235780632d296bf11461028d57806342842e0e146102a957806351f28e14146102d25780635b3b136a146103135780635c6b8f341461033e5780636352211e1461035a57610166565b806301ffc9a71461016b57806306fdde03146101a8578063081812fc146101d3578063095ea7b31461021057806317d70f7c1461023957806323b872dd14610264575b600080fd5b34801561017757600080fd5b50610192600480360381019061018d9190612b7b565b6105e3565b60405161019f9190612bc3565b60405180910390f35b3480156101b457600080fd5b506101bd610644565b6040516101ca9190612c6e565b60405180910390f35b3480156101df57600080fd5b506101fa60048036038101906101f59190612cc6565b6106d6565b6040516102079190612d34565b60405180910390f35b34801561021c57600080fd5b5061023760048036038101906102329190612d7b565b6106f2565b005b34801561024557600080fd5b5061024e610708565b60405161025b9190612dca565b60405180910390f35b34801561027057600080fd5b5061028b60048036038101906102869190612de5565b61070e565b005b6102a760048036038101906102a29190612cc6565b610810565b005b3480156102b557600080fd5b506102d060048036038101906102cb9190612de5565b610ab2565b005b3480156102de57600080fd5b506102f960048036038101906102f49190612cc6565b610ad2565b60405161030a959493929190612e59565b60405180910390f35b34801561031f57600080fd5b50610328610b58565b6040516103359190612fe1565b60405180910390f35b61035860048036038101906103539190612cc6565b610d71565b005b34801561036657600080fd5b50610381600480360381019061037c9190612cc6565b610e2f565b60405161038e9190612d34565b60405180910390f35b3480156103a357600080fd5b506103be60048036038101906103b99190613003565b610e41565b6040516103cb9190612dca565b60405180910390f35b3480156103e057600080fd5b506103e9610efb565b005b3480156103f757600080fd5b50610400610f0f565b60405161040d9190612fe1565b60405180910390f35b34801561042257600080fd5b5061043d60048036038101906104389190612cc6565b6111e1565b60405161044a9190612dca565b60405180910390f35b34801561045f57600080fd5b506104686111f9565b6040516104759190612d34565b60405180910390f35b34801561048a57600080fd5b50610493611222565b6040516104a09190612c6e565b60405180910390f35b3480156104b557600080fd5b506104d060048036038101906104cb919061305c565b6112b4565b005b6104ec60048036038101906104e7919061309c565b6112ca565b005b3480156104fa57600080fd5b5061051560048036038101906105109190613211565b61150f565b005b34801561052357600080fd5b5061053e60048036038101906105399190612cc6565b61152c565b60405161054b9190612c6e565b60405180910390f35b34801561056057600080fd5b5061057b60048036038101906105769190613335565b61163f565b005b34801561058957600080fd5b506105a4600480360381019061059f91906133a4565b6117fa565b6040516105b19190612bc3565b60405180910390f35b3480156105c657600080fd5b506105e160048036038101906105dc9190613003565b61188e565b005b6000634906490660e01b7bffffffffffffffffffffffffffffffffffffffffffffffffffffffff1916827bffffffffffffffffffffffffffffffffffffffffffffffffffffffff1916148061063d575061063c82611914565b5b9050919050565b60606001805461065390613413565b80601f016020809104026020016040519081016040528092919081815260200182805461067f90613413565b80156106cc5780601f106106a1576101008083540402835291602001916106cc565b820191906000526020600020905b8154815290600101906020018083116106af57829003601f168201915b5050505050905090565b60006106e1826119f6565b506106eb82611a7e565b9050919050565b61070482826106ff611abb565b611ac3565b5050565b60085481565b600073ffffffffffffffffffffffffffffffffffffffff168273ffffffffffffffffffffffffffffffffffffffff16036107805760006040517f64a0ae920000000000000000000000000000000000000000000000000000000081526004016107779190612d34565b60405180910390fd5b6000610794838361078f611abb565b611ad5565b90508373ffffffffffffffffffffffffffffffffffffffff168173ffffffffffffffffffffffffffffffffffffffff161461080a578382826040517f64283d7b00000000000000000000000000000000000000000000000000000000815260040161080193929190613444565b60405180910390fd5b50505050565b6000600982815481106108265761082561347b565b5b90600052602060002090600502016002015490506000600983815481106108505761084f61347b565b5b906000526020600020906005020160010160009054906101000a900473ffffffffffffffffffffffffffffffffffffffff16905060006009848154811061089a5761089961347b565b5b906000526020600020906005020160030160009054906101000a900473ffffffffffffffffffffffffffffffffffffffff1690506000600985815481106108e4576108e361347b565b5b906000526020600020906005020160040154905083341461093a576040517f08c379a00000000000000000000000000000000000000000000000000000000081526004016109319061351c565b60405180910390fd5b6000600986815481106109505761094f61347b565b5b906000526020600020906005020160010160006101000a81548173ffffffffffffffffffffffffffffffffffffffff021916908373ffffffffffffffffffffffffffffffffffffffff1602179055506109aa303387611cef565b8173ffffffffffffffffffffffffffffffffffffffff166108fc829081150290604051600060405180830381858888f193505050501580156109f0573d6000803e3d6000fd5b508273ffffffffffffffffffffffffffffffffffffffff166108fc8234610a17919061356b565b9081150290604051600060405180830381858888f19350505050158015610a42573d6000803e3d6000fd5b508173ffffffffffffffffffffffffffffffffffffffff168373ffffffffffffffffffffffffffffffffffffffff16867f08440a7e45760c05b887ab950ccd8f2d9e952b8d734d1daaaed02063643efc293388604051610aa392919061359f565b60405180910390a45050505050565b610acd8383836040518060200160405280600081525061150f565b505050565b60098181548110610ae257600080fd5b90600052602060002090600502016000915090508060000154908060010160009054906101000a900473ffffffffffffffffffffffffffffffffffffffff16908060020154908060030160009054906101000a900473ffffffffffffffffffffffffffffffffffffffff16908060040154905085565b60606000610b6533610e41565b905060008167ffffffffffffffff811115610b8357610b826130e6565b5b604051908082528060200260200182016040528015610bbc57816020015b610ba9612ab4565b815260200190600190039081610ba15790505b5090506000805b600980549050811015610d67573373ffffffffffffffffffffffffffffffffffffffff16610c1560098381548110610bfe57610bfd61347b565b5b906000526020600020906005020160000154610e2f565b73ffffffffffffffffffffffffffffffffffffffff1603610d545760098181548110610c4457610c4361347b565b5b90600052602060002090600502016040518060a0016040529081600082015481526020016001820160009054906101000a900473ffffffffffffffffffffffffffffffffffffffff1673ffffffffffffffffffffffffffffffffffffffff1673ffffffffffffffffffffffffffffffffffffffff168152602001600282015481526020016003820160009054906101000a900473ffffffffffffffffffffffffffffffffffffffff1673ffffffffffffffffffffffffffffffffffffffff1673ffffffffffffffffffffffffffffffffffffffff168152602001600482015481525050838381518110610d3a57610d3961347b565b5b60200260200101819052508180610d50906135c8565b9250505b8080610d5f906135c8565b915050610bc3565b5081935050505090565b60003411610db4576040517f08c379a0000000000000000000000000000000000000000000000000000000008152600401610dab9061365c565b60405180910390fd5b600a60008281526020019081526020016000206000815480929190610dd8906135c8565b91905055503373ffffffffffffffffffffffffffffffffffffffff16817feea8a105c4c7b3434e7353965670d0156bb0797cfa2e136aa6e7bdb22a053b7134604051610e249190612dca565b60405180910390a350565b6000610e3a826119f6565b9050919050565b60008073ffffffffffffffffffffffffffffffffffffffff168273ffffffffffffffffffffffffffffffffffffffff1603610eb45760006040517f89c62b64000000000000000000000000000000000000000000000000000000008152600401610eab9190612d34565b60405180910390fd5b600460008373ffffffffffffffffffffffffffffffffffffffff1673ffffffffffffffffffffffffffffffffffffffff168152602001908152602001600020549050919050565b610f03611e5c565b610f0d6000611ee3565b565b60606000805b600980549050811015610fbd57600073ffffffffffffffffffffffffffffffffffffffff1660098281548110610f4e57610f4d61347b565b5b906000526020600020906005020160010160009054906101000a900473ffffffffffffffffffffffffffffffffffffffff1673ffffffffffffffffffffffffffffffffffffffff1603610faa578180610fa6906135c8565b9250505b8080610fb5906135c8565b915050610f15565b5060008167ffffffffffffffff811115610fda57610fd96130e6565b5b60405190808252806020026020018201604052801561101357816020015b611000612ab4565b815260200190600190039081610ff85790505b5090506000805b6009805490508110156111d757600073ffffffffffffffffffffffffffffffffffffffff16600982815481106110535761105261347b565b5b906000526020600020906005020160010160009054906101000a900473ffffffffffffffffffffffffffffffffffffffff1673ffffffffffffffffffffffffffffffffffffffff16036111c457600981815481106110b4576110b361347b565b5b90600052602060002090600502016040518060a0016040529081600082015481526020016001820160009054906101000a900473ffffffffffffffffffffffffffffffffffffffff1673ffffffffffffffffffffffffffffffffffffffff1673ffffffffffffffffffffffffffffffffffffffff168152602001600282015481526020016003820160009054906101000a900473ffffffffffffffffffffffffffffffffffffffff1673ffffffffffffffffffffffffffffffffffffffff1673ffffffffffffffffffffffffffffffffffffffff1681526020016004820154815250508383815181106111aa576111a961347b565b5b602002602001018190525081806111c0906135c8565b9250505b80806111cf906135c8565b91505061101a565b5081935050505090565b600a6020528060005260406000206000915090505481565b60008060009054906101000a900473ffffffffffffffffffffffffffffffffffffffff16905090565b60606002805461123190613413565b80601f016020809104026020016040519081016040528092919081815260200182805461125d90613413565b80156112aa5780601f1061127f576101008083540402835291602001916112aa565b820191906000526020600020905b81548152906001019060200180831161128d57829003601f168201915b5050505050905090565b6112c66112bf611abb565b8383611fa7565b5050565b6000600983815481106112e0576112df61347b565b5b906000526020600020906005020160040154905060006009848154811061130a5761130961347b565b5b906000526020600020906005020160030160009054906101000a900473ffffffffffffffffffffffffffffffffffffffff169050813414611380576040517f08c379a0000000000000000000000000000000000000000000000000000000008152600401611377906136c8565b60405180910390fd5b600083116113c3576040517f08c379a00000000000000000000000000000000000000000000000000000000081526004016113ba90613734565b60405180910390fd5b82600985815481106113d8576113d761347b565b5b90600052602060002090600502016002018190555033600985815481106114025761140161347b565b5b906000526020600020906005020160010160006101000a81548173ffffffffffffffffffffffffffffffffffffffff021916908373ffffffffffffffffffffffffffffffffffffffff16021790555061145c333086611cef565b8073ffffffffffffffffffffffffffffffffffffffff166108fc349081150290604051600060405180830381858888f193505050501580156114a2573d6000803e3d6000fd5b508073ffffffffffffffffffffffffffffffffffffffff163373ffffffffffffffffffffffffffffffffffffffff16857f408dc302f377403d626b68768b21c8b4a42df06d645addacf72e267ca9be9f86866040516115019190612dca565b60405180910390a450505050565b61151a84848461070e565b61152684848484612116565b50505050565b6060611537826119f6565b50600060076000848152602001908152602001600020805461155890613413565b80601f016020809104026020016040519081016040528092919081815260200182805461158490613413565b80156115d15780601f106115a6576101008083540402835291602001916115d1565b820191906000526020600020905b8154815290600101906020018083116115b457829003601f168201915b5050505050905060006115e26122cd565b905060008151036115f757819250505061163a565b60008251111561162c578082604051602001611614929190613790565b6040516020818303038152906040529250505061163a565b611635846122e4565b925050505b919050565b60086000815480929190611652906135c8565b91905055506116633360085461234d565b61166f60085484612446565b60006040518060a001604052806008548152602001600073ffffffffffffffffffffffffffffffffffffffff1681526020018481526020013373ffffffffffffffffffffffffffffffffffffffff16815260200183815250905060098190806001815401808255809150506001900390600052602060002090600502016000909190919091506000820151816000015560208201518160010160006101000a81548173ffffffffffffffffffffffffffffffffffffffff021916908373ffffffffffffffffffffffffffffffffffffffff1602179055506040820151816002015560608201518160030160006101000a81548173ffffffffffffffffffffffffffffffffffffffff021916908373ffffffffffffffffffffffffffffffffffffffff1602179055506080820151816004015550503373ffffffffffffffffffffffffffffffffffffffff166008547f2d03118aa776f7008445f6ca8490a6782ede2db364d741513555ba656ab1879f846040516117ec9190612dca565b60405180910390a350505050565b6000600660008473ffffffffffffffffffffffffffffffffffffffff1673ffffffffffffffffffffffffffffffffffffffff16815260200190815260200160002060008373ffffffffffffffffffffffffffffffffffffffff1673ffffffffffffffffffffffffffffffffffffffff16815260200190815260200160002060009054906101000a900460ff16905092915050565b611896611e5c565b600073ffffffffffffffffffffffffffffffffffffffff168173ffffffffffffffffffffffffffffffffffffffff16036119085760006040517f1e4fbdf70000000000000000000000000000000000000000000000000000000081526004016118ff9190612d34565b60405180910390fd5b61191181611ee3565b50565b60007f80ac58cd000000000000000000000000000000000000000000000000000000007bffffffffffffffffffffffffffffffffffffffffffffffffffffffff1916827bffffffffffffffffffffffffffffffffffffffffffffffffffffffff191614806119df57507f5b5e139f000000000000000000000000000000000000000000000000000000007bffffffffffffffffffffffffffffffffffffffffffffffffffffffff1916827bffffffffffffffffffffffffffffffffffffffffffffffffffffffff1916145b806119ef57506119ee826124a2565b5b9050919050565b600080611a028361250c565b9050600073ffffffffffffffffffffffffffffffffffffffff168173ffffffffffffffffffffffffffffffffffffffff1603611a7557826040517f7e273289000000000000000000000000000000000000000000000000000000008152600401611a6c9190612dca565b60405180910390fd5b80915050919050565b60006005600083815260200190815260200160002060009054906101000a900473ffffffffffffffffffffffffffffffffffffffff169050919050565b600033905090565b611ad08383836001612549565b505050565b600080611ae18461250c565b9050600073ffffffffffffffffffffffffffffffffffffffff168373ffffffffffffffffffffffffffffffffffffffff1614611b2357611b2281848661270e565b5b600073ffffffffffffffffffffffffffffffffffffffff168173ffffffffffffffffffffffffffffffffffffffff1614611bb457611b65600085600080612549565b6001600460008373ffffffffffffffffffffffffffffffffffffffff1673ffffffffffffffffffffffffffffffffffffffff168152602001908152602001600020600082825403925050819055505b600073ffffffffffffffffffffffffffffffffffffffff168573ffffffffffffffffffffffffffffffffffffffff1614611c37576001600460008773ffffffffffffffffffffffffffffffffffffffff1673ffffffffffffffffffffffffffffffffffffffff168152602001908152602001600020600082825401925050819055505b846003600086815260200190815260200160002060006101000a81548173ffffffffffffffffffffffffffffffffffffffff021916908373ffffffffffffffffffffffffffffffffffffffff160217905550838573ffffffffffffffffffffffffffffffffffffffff168273ffffffffffffffffffffffffffffffffffffffff167fddf252ad1be2c89b69c2b068fc378daa952ba7f163c4a11628f55a4df523b3ef60405160405180910390a4809150509392505050565b600073ffffffffffffffffffffffffffffffffffffffff168273ffffffffffffffffffffffffffffffffffffffff1603611d615760006040517f64a0ae92000000000000000000000000000000000000000000000000000000008152600401611d589190612d34565b60405180910390fd5b6000611d6f83836000611ad5565b9050600073ffffffffffffffffffffffffffffffffffffffff168173ffffffffffffffffffffffffffffffffffffffff1603611de257816040517f7e273289000000000000000000000000000000000000000000000000000000008152600401611dd99190612dca565b60405180910390fd5b8373ffffffffffffffffffffffffffffffffffffffff168173ffffffffffffffffffffffffffffffffffffffff1614611e56578382826040517f64283d7b000000000000000000000000000000000000000000000000000000008152600401611e4d93929190613444565b60405180910390fd5b50505050565b611e64611abb565b73ffffffffffffffffffffffffffffffffffffffff16611e826111f9565b73ffffffffffffffffffffffffffffffffffffffff1614611ee157611ea5611abb565b6040517f118cdaa7000000000000000000000000000000000000000000000000000000008152600401611ed89190612d34565b60405180910390fd5b565b60008060009054906101000a900473ffffffffffffffffffffffffffffffffffffffff169050816000806101000a81548173ffffffffffffffffffffffffffffffffffffffff021916908373ffffffffffffffffffffffffffffffffffffffff1602179055508173ffffffffffffffffffffffffffffffffffffffff168173ffffffffffffffffffffffffffffffffffffffff167f8be0079c531659141344cd1fd0a4f28419497f9722a3daafe3b4186f6b6457e060405160405180910390a35050565b600073ffffffffffffffffffffffffffffffffffffffff168273ffffffffffffffffffffffffffffffffffffffff160361201857816040517f5b08ba1800000000000000000000000000000000000000000000000000000000815260040161200f9190612d34565b60405180910390fd5b80600660008573ffffffffffffffffffffffffffffffffffffffff1673ffffffffffffffffffffffffffffffffffffffff16815260200190815260200160002060008473ffffffffffffffffffffffffffffffffffffffff1673ffffffffffffffffffffffffffffffffffffffff16815260200190815260200160002060006101000a81548160ff0219169083151502179055508173ffffffffffffffffffffffffffffffffffffffff168373ffffffffffffffffffffffffffffffffffffffff167f17307eab39ab6107e8899845ad3d59bd9653f200f220920489ca2b5937696c31836040516121099190612bc3565b60405180910390a3505050565b60008373ffffffffffffffffffffffffffffffffffffffff163b11156122c7578273ffffffffffffffffffffffffffffffffffffffff1663150b7a0261215a611abb565b8685856040518563ffffffff1660e01b815260040161217c9493929190613809565b6020604051808303816000875af19250505080156121b857506040513d601f19601f820116820180604052508101906121b5919061386a565b60015b61223c573d80600081146121e8576040519150601f19603f3d011682016040523d82523d6000602084013e6121ed565b606091505b50600081510361223457836040517f64a0ae9200000000000000000000000000000000000000000000000000000000815260040161222b9190612d34565b60405180910390fd5b805181602001fd5b63150b7a0260e01b7bffffffffffffffffffffffffffffffffffffffffffffffffffffffff1916817bffffffffffffffffffffffffffffffffffffffffffffffffffffffff1916146122c557836040517f64a0ae920000000000000000000000000000000000000000000000000000000081526004016122bc9190612d34565b60405180910390fd5b505b50505050565b606060405180602001604052806000815250905090565b60606122ef826119f6565b5060006122fa6122cd565b9050600081511161231a5760405180602001604052806000815250612345565b80612324846127d2565b604051602001612335929190613790565b6040516020818303038152906040525b915050919050565b600073ffffffffffffffffffffffffffffffffffffffff168273ffffffffffffffffffffffffffffffffffffffff16036123bf5760006040517f64a0ae920000000000000000000000000000000000000000000000000000000081526004016123b69190612d34565b60405180910390fd5b60006123cd83836000611ad5565b9050600073ffffffffffffffffffffffffffffffffffffffff168173ffffffffffffffffffffffffffffffffffffffff16146124415760006040517f73c6ac6e0000000000000000000000000000000000000000000000000000000081526004016124389190612d34565b60405180910390fd5b505050565b806007600084815260200190815260200160002090816124669190613a43565b507ff8e1a15aba9398e019f0b49df1a4fde98ee17ae345cb5f6b5e2c27f5033e8ce7826040516124969190612dca565b60405180910390a15050565b60007f01ffc9a7000000000000000000000000000000000000000000000000000000007bffffffffffffffffffffffffffffffffffffffffffffffffffffffff1916827bffffffffffffffffffffffffffffffffffffffffffffffffffffffff1916149050919050565b60006003600083815260200190815260200160002060009054906101000a900473ffffffffffffffffffffffffffffffffffffffff169050919050565b80806125825750600073ffffffffffffffffffffffffffffffffffffffff168273ffffffffffffffffffffffffffffffffffffffff1614155b156126b6576000612592846119f6565b9050600073ffffffffffffffffffffffffffffffffffffffff168373ffffffffffffffffffffffffffffffffffffffff16141580156125fd57508273ffffffffffffffffffffffffffffffffffffffff168173ffffffffffffffffffffffffffffffffffffffff1614155b8015612610575061260e81846117fa565b155b1561265257826040517fa9fbf51f0000000000000000000000000000000000000000000000000000000081526004016126499190612d34565b60405180910390fd5b81156126b457838573ffffffffffffffffffffffffffffffffffffffff168273ffffffffffffffffffffffffffffffffffffffff167f8c5be1e5ebec7d5bd14f71427d1e84f3dd0314c0f7b2291e5b200ac8c7c3b92560405160405180910390a45b505b836005600085815260200190815260200160002060006101000a81548173ffffffffffffffffffffffffffffffffffffffff021916908373ffffffffffffffffffffffffffffffffffffffff16021790555050505050565b6127198383836128a0565b6127cd57600073ffffffffffffffffffffffffffffffffffffffff168373ffffffffffffffffffffffffffffffffffffffff160361278e57806040517f7e2732890000000000000000000000000000000000000000000000000000000081526004016127859190612dca565b60405180910390fd5b81816040517f177e802f0000000000000000000000000000000000000000000000000000000081526004016127c492919061359f565b60405180910390fd5b505050565b6060600060016127e184612961565b01905060008167ffffffffffffffff811115612800576127ff6130e6565b5b6040519080825280601f01601f1916602001820160405280156128325781602001600182028036833780820191505090505b509050600082602001820190505b600115612895578080600190039150507f3031323334353637383961626364656600000000000000000000000000000000600a86061a8153600a858161288957612888613b15565b5b04945060008503612840575b819350505050919050565b60008073ffffffffffffffffffffffffffffffffffffffff168373ffffffffffffffffffffffffffffffffffffffff161415801561295857508273ffffffffffffffffffffffffffffffffffffffff168473ffffffffffffffffffffffffffffffffffffffff161480612919575061291884846117fa565b5b8061295757508273ffffffffffffffffffffffffffffffffffffffff1661293f83611a7e565b73ffffffffffffffffffffffffffffffffffffffff16145b5b90509392505050565b600080600090507a184f03e93ff9f4daa797ed6e38ed64bf6a1f01000000000000000083106129bf577a184f03e93ff9f4daa797ed6e38ed64bf6a1f01000000000000000083816129b5576129b4613b15565b5b0492506040810190505b6d04ee2d6d415b85acef810000000083106129fc576d04ee2d6d415b85acef810000000083816129f2576129f1613b15565b5b0492506020810190505b662386f26fc100008310612a2b57662386f26fc100008381612a2157612a20613b15565b5b0492506010810190505b6305f5e1008310612a54576305f5e1008381612a4a57612a49613b15565b5b0492506008810190505b6127108310612a79576127108381612a6f57612a6e613b15565b5b0492506004810190505b60648310612a9c5760648381612a9257612a91613b15565b5b0492506002810190505b600a8310612aab576001810190505b80915050919050565b6040518060a0016040528060008152602001600073ffffffffffffffffffffffffffffffffffffffff16815260200160008152602001600073ffffffffffffffffffffffffffffffffffffffff168152602001600081525090565b6000604051905090565b600080fd5b600080fd5b60007fffffffff0000000000000000000000000000000000000000000000000000000082169050919050565b612b5881612b23565b8114612b6357600080fd5b50565b600081359050612b7581612b4f565b92915050565b600060208284031215612b9157612b90612b19565b5b6000612b9f84828501612b66565b91505092915050565b60008115159050919050565b612bbd81612ba8565b82525050565b6000602082019050612bd86000830184612bb4565b92915050565b600081519050919050565b600082825260208201905092915050565b60005b83811015612c18578082015181840152602081019050612bfd565b60008484015250505050565b6000601f19601f8301169050919050565b6000612c4082612bde565b612c4a8185612be9565b9350612c5a818560208601612bfa565b612c6381612c24565b840191505092915050565b60006020820190508181036000830152612c888184612c35565b905092915050565b6000819050919050565b612ca381612c90565b8114612cae57600080fd5b50565b600081359050612cc081612c9a565b92915050565b600060208284031215612cdc57612cdb612b19565b5b6000612cea84828501612cb1565b91505092915050565b600073ffffffffffffffffffffffffffffffffffffffff82169050919050565b6000612d1e82612cf3565b9050919050565b612d2e81612d13565b82525050565b6000602082019050612d496000830184612d25565b92915050565b612d5881612d13565b8114612d6357600080fd5b50565b600081359050612d7581612d4f565b92915050565b60008060408385031215612d9257612d91612b19565b5b6000612da085828601612d66565b9250506020612db185828601612cb1565b9150509250929050565b612dc481612c90565b82525050565b6000602082019050612ddf6000830184612dbb565b92915050565b600080600060608486031215612dfe57612dfd612b19565b5b6000612e0c86828701612d66565b9350506020612e1d86828701612d66565b9250506040612e2e86828701612cb1565b9150509250925092565b6000612e4382612cf3565b9050919050565b612e5381612e38565b82525050565b600060a082019050612e6e6000830188612dbb565b612e7b6020830187612e4a565b612e886040830186612dbb565b612e956060830185612e4a565b612ea26080830184612dbb565b9695505050505050565b600081519050919050565b600082825260208201905092915050565b6000819050602082019050919050565b612ee181612c90565b82525050565b612ef081612e38565b82525050565b60a082016000820151612f0c6000850182612ed8565b506020820151612f1f6020850182612ee7565b506040820151612f326040850182612ed8565b506060820151612f456060850182612ee7565b506080820151612f586080850182612ed8565b50505050565b6000612f6a8383612ef6565b60a08301905092915050565b6000602082019050919050565b6000612f8e82612eac565b612f988185612eb7565b9350612fa383612ec8565b8060005b83811015612fd4578151612fbb8882612f5e565b9750612fc683612f76565b925050600181019050612fa7565b5085935050505092915050565b60006020820190508181036000830152612ffb8184612f83565b905092915050565b60006020828403121561301957613018612b19565b5b600061302784828501612d66565b91505092915050565b61303981612ba8565b811461304457600080fd5b50565b60008135905061305681613030565b92915050565b6000806040838503121561307357613072612b19565b5b600061308185828601612d66565b925050602061309285828601613047565b9150509250929050565b600080604083850312156130b3576130b2612b19565b5b60006130c185828601612cb1565b92505060206130d285828601612cb1565b9150509250929050565b600080fd5b600080fd5b7f4e487b7100000000000000000000000000000000000000000000000000000000600052604160045260246000fd5b61311e82612c24565b810181811067ffffffffffffffff8211171561313d5761313c6130e6565b5b80604052505050565b6000613150612b0f565b905061315c8282613115565b919050565b600067ffffffffffffffff82111561317c5761317b6130e6565b5b61318582612c24565b9050602081019050919050565b82818337600083830152505050565b60006131b46131af84613161565b613146565b9050828152602081018484840111156131d0576131cf6130e1565b5b6131db848285613192565b509392505050565b600082601f8301126131f8576131f76130dc565b5b81356132088482602086016131a1565b91505092915050565b6000806000806080858703121561322b5761322a612b19565b5b600061323987828801612d66565b945050602061324a87828801612d66565b935050604061325b87828801612cb1565b925050606085013567ffffffffffffffff81111561327c5761327b612b1e565b5b613288878288016131e3565b91505092959194509250565b600067ffffffffffffffff8211156132af576132ae6130e6565b5b6132b882612c24565b9050602081019050919050565b60006132d86132d384613294565b613146565b9050828152602081018484840111156132f4576132f36130e1565b5b6132ff848285613192565b509392505050565b600082601f83011261331c5761331b6130dc565b5b813561332c8482602086016132c5565b91505092915050565b60008060006060848603121561334e5761334d612b19565b5b600084013567ffffffffffffffff81111561336c5761336b612b1e565b5b61337886828701613307565b935050602061338986828701612cb1565b925050604061339a86828701612cb1565b9150509250925092565b600080604083850312156133bb576133ba612b19565b5b60006133c985828601612d66565b92505060206133da85828601612d66565b9150509250929050565b7f4e487b7100000000000000000000000000000000000000000000000000000000600052602260045260246000fd5b6000600282049050600182168061342b57607f821691505b60208210810361343e5761343d6133e4565b5b50919050565b60006060820190506134596000830186612d25565b6134666020830185612dbb565b6134736040830184612d25565b949350505050565b7f4e487b7100000000000000000000000000000000000000000000000000000000600052603260045260246000fd5b7f506c656173652073656e6420746865207265717569726564207072696365207460008201527f6f20636f6d706c657465207468652070757263686173652e0000000000000000602082015250565b6000613506603883612be9565b9150613511826134aa565b604082019050919050565b60006020820190508181036000830152613535816134f9565b9050919050565b7f4e487b7100000000000000000000000000000000000000000000000000000000600052601160045260246000fd5b600061357682612c90565b915061358183612c90565b92508282039050818111156135995761359861353c565b5b92915050565b60006040820190506135b46000830185612d25565b6135c16020830184612dbb565b9392505050565b60006135d382612c90565b91507fffffffffffffffffffffffffffffffffffffffffffffffffffffffffffffffff82036136055761360461353c565b5b600182019050919050565b7f4d7573742070617920746f206c696b65206120746f6b656e0000000000000000600082015250565b6000613646601883612be9565b915061365182613610565b602082019050919050565b6000602082019050818103600083015261367581613639565b9050919050565b7f4d7573742070617920526f79616c747900000000000000000000000000000000600082015250565b60006136b2601083612be9565b91506136bd8261367c565b602082019050919050565b600060208201905081810360008301526136e1816136a5565b9050919050565b7f5072696365206d7573742062652067726561746572207468616e203000000000600082015250565b600061371e601c83612be9565b9150613729826136e8565b602082019050919050565b6000602082019050818103600083015261374d81613711565b9050919050565b600081905092915050565b600061376a82612bde565b6137748185613754565b9350613784818560208601612bfa565b80840191505092915050565b600061379c828561375f565b91506137a8828461375f565b91508190509392505050565b600081519050919050565b600082825260208201905092915050565b60006137db826137b4565b6137e581856137bf565b93506137f5818560208601612bfa565b6137fe81612c24565b840191505092915050565b600060808201905061381e6000830187612d25565b61382b6020830186612d25565b6138386040830185612dbb565b818103606083015261384a81846137d0565b905095945050505050565b60008151905061386481612b4f565b92915050565b6000602082840312156138805761387f612b19565b5b600061388e84828501613855565b91505092915050565b60008190508160005260206000209050919050565b60006020601f8301049050919050565b600082821b905092915050565b6000600883026138f97fffffffffffffffffffffffffffffffffffffffffffffffffffffffffffffffff826138bc565b61390386836138bc565b95508019841693508086168417925050509392505050565b6000819050919050565b600061394061393b61393684612c90565b61391b565b612c90565b9050919050565b6000819050919050565b61395a83613925565b61396e61396682613947565b8484546138c9565b825550505050565b600090565b613983613976565b61398e818484613951565b505050565b5b818110156139b2576139a760008261397b565b600181019050613994565b5050565b601f8211156139f7576139c881613897565b6139d1846138ac565b810160208510156139e0578190505b6139f46139ec856138ac565b830182613993565b50505b505050565b600082821c905092915050565b6000613a1a600019846008026139fc565b1980831691505092915050565b6000613a338383613a09565b9150826002028217905092915050565b613a4c82612bde565b67ffffffffffffffff811115613a6557613a646130e6565b5b613a6f8254613413565b613a7a8282856139b6565b600060209050601f831160018114613aad5760008415613a9b578287015190505b613aa58582613a27565b865550613b0d565b601f198416613abb86613897565b60005b82811015613ae357848901518255600182019150602085019450602081019050613abe565b86831015613b005784890151613afc601f891682613a09565b8355505b6001600288020188555050505b505050505050565b7f4e487b7100000000000000000000000000000000000000000000000000000000600052601260045260246000fdfea26469706673582212200f84f6a93df8bef74f3571450b47df7e5d1601479c2b9ef3de1fb948a43bc06d64736f6c63430008140033",
  "linkReferences": {},
  "deployedLinkReferences": {}
}